:0A0000000C94A9000C9400000C946D
:10000A0000000C9400000C9400000C9400000C9466
:10001A0000000C9400000C9400000C94F2000C9464
:10002A0000000C9400000C9400000C9400000C9446
:10003A0000000C9400000C9400000C9400000C9436
:10004A00D6000C9400000C9400001027E80364000A
:10005A000A00010000100001100001000000000069
:10006A00000000000000546573742052756E000091
:10007A000000000000004361626C652053656C65F6
:10008A006374000000004361626C65206465666900
:10009A006E650000000041626F7574204D652D3E4B
:1000AA002573002D3E206361626C65253032640041
:1000BA00253032642D3E2530326420202050726F64
:1000CA00663D2530326400205E202020202020203A
:1000DA0020202020202020200020202020205E20F8
:1000EA002020202020202020202000202020202026
:1000FA00202020202020202020205E002043616232
:10010A006C652054657374205625303264200020B3
:10011A0020202020204E5343202020202020000091
:10012A0001002D4E414E00494E46000080C00A0093
:10013A000400660038004F02700001009F022A0185
:10014A000200A30236010000F894EE27ECBBF1E0AE
:10015A00FBBFEBBFE5BF8DE0A2E0BB27ED938A951D
:10016A00E9F780E094E0A0E6ED930197E9F7E8E388
:10017A00F1E085919591009761F0A591B59105906F
:10018A001590BF01F00105900D920197E1F7FB016F
:10019A00F0CFEFE5EDBFE4E0EEBFC0E6D1E00C94AE
:1001AA002701EA93EFB7EA93B39B05C0E0914E02A9
:1001BA00E160E0934E02B59B05C0E0914E02E26019
:1001CA00E0934E02B49B05C0E0914E02E460E093D6
:1001DA004E02E991EFBFE99118950A921A92FA92A2
:1001EA006A937A938A939A93AA93BA93EA93FA931D
:1001FA00EFB7EA93E4E6E2BFE0914D02F0E0E430C3
:10020A00A0E0FA0711F470D00FC0309711F48CD027
:10021A000BC0E130A0E0FA0711F4AFD005C0E3301B
:10022A00A0E0FA0709F41DD1E991EFBFF991E9912C
:10023A00B991A9919991899179916991F9901990B6
:10024A0009901895E1E0E0936801E2E0E093690122
:10025A00E4E0E0936A01E8E0E0936B01E0E1E09317
:10026A006C01E0E2E0936D01E0E4E0936E01E0E806
:10027A00E0936F01E1E0E093C801E2E0E093C80196
:10028A00E4E0E093C801E8E0E093C801E0E1E0932C
:10029A00C801E0E2E093C801E0E4E093C801E0E8C5
:1002AA00E093C801E0E0EABBEBBBE7BBE8BBEFEFDA
:1002BA00E4BBE0E0E5BBE1BBE2BBEBB7E062EBBF6E
:1002CA00E0E0E5BFE4BFE0E2EABFE4E0E3BFE4E682
:1002DA00E2BFE0E0ECBFE1E0E9BFB89AA0E10E942A
:1002EA0088047894FFCFFFCF0E94B704E8EAF0E0D1
:1002FA00FA93EA93E42DF0E00E94C1040E94D1042B
:10030A00EAEAF0E0FA93EA93E42DF0E031960E94EB
:10031A00C1040E94DB0439F4E0912202E77FE093F2
:10032A002202E42D089527C00E94B704EDEAF0E006
:10033A00FA93EA93E0914B020E9467050E94EA044D
:10034A000E94D104E0EBF0E0FA93EA93E0914B02C9
:10035A00F0E0E7FDFFEF31960E946D050E94EA0486
:10036A000E94DB0441F4E0912202E77FE09322023B
:10037A00E0914B020895EFEF0895E0E0EA93A0E0E0
:10038A000E9441040E94F404E05AFE4FDF01E62D68
:10039A00F0E0EA0FFB1F80820E94F404E054FE4F53
:1003AA00DF01E92DF0E0EA0FFB1FB0820E94F90499
:1003BA00EAEBF0E0FA93EA930E94F404E05AFE4F63
:1003CA00DF01EE27A60DBE1F0E94FE040E94F40460
:1003DA00E054FE4FDF01EE27A90DBE1F0E94FE0466
:1003EA00E72DFF27662777270E947A058CE00E946F
:1003FA00C4036096AFE8B2E00E9477040E94F90451
:10040A000E940505E0E0EA93A1E00E944104E09120
:10041A004C02F0E0E770F070E2FF02C0E86FFF6F95
:10042A00E230A0E0FA0739F40E94F904E1EDF0E0C5
:10043A000E940B0515C0E330A0E0FA0739F40E94C8
:10044A00D104E3EEF0E00E940B050AC0E430A0E01C
:10045A00FA0731F40E94F904E5EFF0E00E940B0577
:10046A0012C00E94B704E6E0F1E0FA93EA93E1E0F1
:10047A00F0E060E070E00E94EA040E94D104E9E141
:10048A00F1E00E940B05AFE8B2E00E9477040E94F7
:10049A00F9040E9405050895BA93AA931A930A9338
:1004AA00AA81BB8112960E947205309759F1AA81DE
:1004BA00BB8114960E9472058F01309761F0023059
:1004CA00E0E01E0798F0F80131978F01AA81BB81FD
:1004DA001496ED93FC93AA81BB811296ED91FD913E
:1004EA003196FE93EE933197AC81A083AA81BB81AA
:1004FA000E947205FF232AF0ED91FD913196FE9339
:10050A00EE9306C0AA81BB81EFEFFFEFED93FC9358
:10051A001981088176C1BA93AA9326970E947F050A
:10052A0010E0AC85BD85E0E0F0E0ED93FC93EA894C
:10053A00FB893196EA8BFB8B3197E4912E2FE030C1
:10054A0009F415C1E12FE03039F4253211F411E034
:10055A0002C00E9412050AC1E130A9F4253219F439
:10056A000E94120502C112E040E000E02D3211F4AF
:10057A0001E0FCC02B3211F44BE2F8C0203211F436
:10058A0040E2F4C002C0E23039F450E013E0203314
:10059A0011F40068EBC003C0E33009F0E7C0203370
:1005AA0010F02A3308F007C0AAE05A9F502DE22F14
:1005BA00E0535E0FDBC0E22FE33649F40E941905CF
:1005CA00E889F989A481AA930E941F05CEC0E3375E
:1005DA0041F40E9419050E9425050E9408041E2F55
:1005EA000AC0E03761F40E9419050E9425050E949D
:1005FA0014041E2F086002600F7730E034C0E4361E
:10060A0011F0E93611F4046002C0E53731F4E4E58B
:10061A00F0E0EE83FF8315E00CC0E83511F40860C2
:10062A0003C0E83709F0A1C0EEE5F0E0EE83FF83EE
:10063A0014E002FF14C00E9419050E942F05AB8521
:10064A00AA233AF4EA85FB850E945A05EA87FB87C2
:10065A004DE2403011F01F5F01C00B7F04C00E94C1
:10066A0019050E942F0500FD11C0151778F407FF20
:10067A0008C002FF04C00B7F242F115001C020E3E1
:10068A0001C020E20E9412055150EFCF312F01FF25
:10069A0017C03030A1F003FF06C0EE81FF8125911B
:1006AA00EE83FF8305C0AE81BF812D91AE83BF83E8
:1006BA000E941205503009F051503150EACF4BC018
:1006CA0020E3EE81FF810E947605E887F987EE81B3
:1006DA00FF813296EE83FF83E885F985AA85BB857B
:1006EA00AE17BF0750F02F5FA885B985EA85FB854D
:1006FA00EA1BFB0BEA87FB87EFCF2A3328F003FFBD
:10070A0002C0295F01C0295D04FD1AC0213320F40B
:10071A00A885B985119709F409C0531710F000FF8D
:10072A0001C013C020E207FF0BC020E3006102FFF3
:10073A0007C00B7F4A930E941F05503009F05150A1
:10074A000E941205503009F051503150A885B985E0
:10075A00129708F0B5CF00FF08C0503031F0515061
:10076A00E0E2EA930E941F05F8CF10E0E0CEAC85E4
:10077A00BD850E9472050E94860564960895FF92BF
:10078A00F82E26970E9481050E943705309719F4A2
:10079A00EFEFFFEF23C0DE0116960E9456058D018A
:1007AA000E943705EE83FF83E0E0E887E987DE01F0
:1007BA001A960E9456050E947205FA93EA931A93B2
:1007CA000A93E1E5F2E0FA93EA93DE011A96A3DED0
:1007DA009F01AE81BF81E0E0EC93F9010E94880598
:1007EA002A96FF900895BA93AA93B981A881109680
:1007FA0031F0FC81EB816A8161931197E9F7EB8112
:10080A00FC8125960895BA93AA93A991B991EE27E6
:10081A00FF276D91662311F03196FBCF0895BA93A5
:10082A00AA93AA27BB27E991F9910590002011F014
:10083A001196FBCFFD010895AA93EBB3EF70AE2F8B
:10084A00E881E07FEA2BEBBB8DE08A95F1F7DA9A33
:10085A008DE08A95F1F7DA988DE08A95F1F780C0F4
:10086A00AA93A881E9DFE881E295E883A881E4DF19
:10087A0085E88A95F1F774C0AA93E881F0E0ED550E
:10088A00FD4FE081A981AE0FEBDFA980E881E093FB
:10089A00A70222960895A2E00E943E05ACE0E0DF9E
:1008AA00A1E00E943E05E0E0E093A702AE2E089583
:1008BA00AA93A881AA3021F0E091A802AE1660F0AE
:1008CA00E0E0EA93A091A702AF5FA093A702D4DF6A
:1008DA00A881AA3009F444C0A394D89AA881C0DF99
:1008EA00D8983EC0BA93AA931A93A981BA81ED9176
:1008FA00A983BA831E2FE03019F0A12FD9DFF5CFD3
:10090A00188123960895AA93EAB3E06FEABBD29AB4
:10091A00D09AD19ADA98D898D998E881E093A8021F
:10092A00E058E093A502E881E054E093A602A4E12E
:10093A00B0E00E944C050E9444050E9444050E94B2
:10094A004405A0E279DF88EC90E00197F1F7A8E28C
:10095A0087DFA4E085DFA5E883DFA6E081DF9BDFF0
:10096A0021960895E0E0EA93A0E00E944104EFE8AE
:10097A00F2E0FA93EA9308950E945E05E15BFD4F67
:10098A00662777270E947A0584E00E94C403289686
:10099A00AFE8B2E00C947704E0E0EA93A1E00E94A9
:1009AA004104EFE8F2E0FA93EA930895EFE8F2E0FF
:1009BA00FA93EA93E0E0EA93A0E1B0E00E94F80338
:1009CA00E0912202E870E83008950E947A0584E0F6
:1009DA000E94C4032896AFE8B2E00C947704E72D8E
:1009EA00F0E00E9460050895EFE8F2E0FA93EA93D6
:1009FA000895EC91FF27662777270E947A050895C4
:100A0A00E0E0EA93A0E1B0E00C94F803FA93EA93E9
:100A1A0080E00E94C403249608952A93AD85BE857A
:100A2A00EF85F88909950895E889F9893497E88B5B
:100A3A00F98B0895AD85BE85EF85F88909950895E6
:100A4A00A889B98914960E947205EE83FF83AE8144
:100A5A00BF810895A889B98914960E947205EA8708
:100A6A00FB870895DE011C960E9456050E947205B6
:100A7A0008950E943504A3E0B0E00C944C05A0E36D
:100A8A000E94210488EC90E00197F1F708951096EE
:100A9A0039F0A89580ED97E00197F1F71197C9F71A
:100AAA0008950024AF0DB01D0895F195E195F04029
:100ABA000895EE0FFF1FEE0FFF1FEE0FFF1FEE0F41
:100ACA00FF1F0895FE2FFF0FFF0B6F2F7F2F089533
:100ADA006F2F660F660B762F0895ED91FC91119793
:100AEA0008950590F491E02D08957A936A93FA9304
:100AFA00EA9308955A934A933A932A931A930A9334
:100B0A0008955D814C813B812A811981088108956C
:00000001FF
