:0C0000000C94CB000C9400000C94000049
:10000C000C9400000C9400000C9400000C94000064
:10001C000C9400000C9400000C9414010C9400003F
:10002C000C9400000C9400000C9400000C94000044
:10003C000C9400000C9400000C9400000C94F8003C
:10004C000C9400000C9400001027E80364000A00D4
:10005C0001000010000110000100E501AB01B70127
:10006C00B001546573742052756E000000000000DE
:10007C00000000000000004361626C652053656C59
:10008C0065637400000000000000000041626F75A1
:10009C0074204D652020002D3E000400257325732F
:1000AC000025734361626C6525303264002D2D3E52
:1000BC0020257300206361626C652530326420500A
:1000CC0041535321202020006361626C652530323E
:1000DC0064204661696C65642100253032642D3ED4
:1000EC002530326420202050726F663D25303264FA
:1000FC0000205E20202020202020202020202020D6
:10010C0020200020202020205E20202020202020C5
:10011C0020202020002020202020202020202020F3
:10012C00202020205E00204361626C6520546573A2
:10013C007420562530326420002020202020204EB0
:10014C005343202020202020000001002D4E414E42
:10015C0000494E46000080C00200450266000200C5
:10016C0047026800020049026A00320057026E0022
:10017C000500AB02A00001005502A6000100C5025B
:10018C0056010200C90262010000F894EE27ECBB94
:10019C00F1E0FBBFEBBFE5BF8DE0A2E0BB27ED9329
:1001AC008A95E9F780E094E0A0E6ED930197E9F7F2
:1001BC00E4E6F1E085919591009761F0A591B591F8
:1001CC0005901590BF01F00105900D920197E1F794
:1001DC00FB01F0CFEFE5EDBFE4E0EEBFC0E6D1E010
:1001EC000C945901EA93EFB7EA93B39905C0E091E7
:1001FC005602E160E0935602B59905C0E0915602B3
:10020C00E260E0935602B49905C0E0915602E460B6
:10021C00E0935602E991EFBFE99118950A921A9270
:10022C00FA926A937A938A939A93AA93BA93EA93DB
:10023C00FA93EFB7EA93E4E6E2BFE0915502F0E0FF
:10024C00E430A0E0FA0721F48ED00E9494031DC084
:10025C00309721F4F0D00E942A0417C0E130A0E0BE
:10026C00FA0721F4ACD00E9440040FC0E330A0E0A8
:10027C00FA0721F41FD10E94AA0407C0E230A0E0C3
:10028C00FA0719F47FD10E942D05E991EFBFF9917E
:10029C00E991B991A9919991899179916991F99083
:1002AC00199009901895E1E0E0936001E2E0E09389
:1002BC006101E4E0E0936201E8E0E0936301E0E1D6
:1002CC00E0936401E0E2E0936501E0E4E093660111
:1002DC00E0E8E0936701E1E0E093C001E2E0E09345
:1002EC00C101E4E0E093C201E8E0E093C301E0E186
:1002FC00E093C401E0E2E093C501E0E4E093C601C1
:10030C00E0E8E093C701E0E0EABBEBBBE7BBE8BB8E
:10031C00EFEFE4BBE0E0E5BBE1BBE2BBEBB7E062D7
:10032C00EBBFE0E0E5BFE4BFE0E2EABFE4E0E3BF3F
:10033C00E4E6E2BFE0E0ECBFE1E0E9BFB89AA4E19B
:10034C000E94BE077894FFCFFFCFAA93E881E5BB4C
:10035C00219608950E947109A881B9810E943809DB
:10036C0068C0E0B308950E94EC07343010F43330C9
:10037C0008F024C00E94F307E8EAF0E0FA93EA934D
:10038C00A32FBB27E0914C020E940B08A0914B02BB
:10039C000E941A08A5E1B0E00E945C09E95AFD4FE1
:1003AC00662777270E94220814F411230AF402C04E
:1003BC000E942D080E943B083F5FD7CF38C00E9497
:1003CC00EC073430F0F40E94F307EDEAF0E0FA9316
:1003DC00EA93A32FBB27E0914E020E940B08A09139
:1003EC004D020E941A080E9451090E94220814F41E
:1003FC0011230AF402C00E942D080E943B083F5FA3
:10040C00E0CFE0913302E870E83081F4E091330200
:10041C00E77FE0933302E0914E02A0914D02EA0F88
:10042C00E0933102E0914E02EA0F01C0EFEF0E941F
:10043C00890924960895A0912802A930C1F1BFD052
:10044C0023D10E9442080E9447080E944C08E9EB05
:10045C00F0E0FA93EA93E9E2F2E0662777270E944C
:10046C005308A0913202A83039F40E945D080E9412
:10047C004C08E0ECF0E006C00E945D080E944C08BD
:10048C00E4EDF0E0FA93EA93A0914D02B0E0A7FD01
:10049C00BFEFE0914E02F0E0E7FDFFEFEA0FFB1F2C
:1004AC000E9451090E945308E0E0E0933202E0E020
:1004BC00089508950E9442080E9463080E946908EA
:1004CC00EA0FFB1FA0915202A0830E9463080E94B6
:1004DC007008EA0FFB1FA0915302A0830E944708EB
:1004EC00E6EEF0E0FA93EA930E9463080E94690832
:1004FC000E9477080E9463080E9470080E94770887
:10050C00E0914F02FF27662777270E946C098CE049
:10051C000E94E2066096A1EBB2E00E94AD070E9439
:10052C0047080E948008E0E0EA93A1E00E947F0760
:10053C00E0915402F0E0E770F070E2FF02C0E86F67
:10054C00FF6FE230A0E0FA0739F40E944708EDEFA4
:10055C00F0E00E94860815C0E330A0E0FA0739F4F9
:10056C000E945D08EFE0F1E00E9486080AC0E430CA
:10057C00A0E0FA0731F40E944708E1E2F1E00E94A2
:10058C00860814C00E9442080E944708E2E3F1E08A
:10059C00FA93EA93E1E0F0E060E070E00E94530827
:1005AC000E945D08E5E4F1E00E948608A1EBB2E050
:1005BC000E94AD070E9447080E94800808951A9374
:1005CC000A9310E000E0E5E3F2E00E948D08E05AA7
:1005DC00FE4F0E949508EDE3F2E00E948D08E05476
:1005EC00FE4F0E94950810E0183008F04AC0E12F29
:1005FC00F0E0E35CFD4FA081E0914702F0914802EE
:10060C00099500E0083028F50E949B08A1F4011719
:10061C0051F0A12FB0E0A05EBD4FE12FEE5FEC9347
:10062C000E94A80808C0011731F40E94A8080E9473
:10063C00AE08A0E0A0830E949B0848F40E94A80882
:10064C00A12FB0E0A05EBD4FE12FED5FEC930F5FEB
:10065C00D9CFE0913302E170E13021F4E091330223
:10066C00EE7F0BC0E0913302E17049F40E94AE08BA
:10067C00A1E0A083E0913302E260E09333021F5FBC
:10068C00B3CF09911991089563971A9310E010E074
:10069C001830B8F50E94AE08A081E12FF0E0339637
:1006AC00B0E0EA17FB0721F40E94B308E3E426C08C
:1006BC000E94AE08A081E12FF0E03296B0E0EA177C
:1006CC00FB0721F40E94B308E7E518C00E94AE08AE
:1006DC00E081E03059F40E94B308E7E4EC93E09138
:1006EC003202EF5FE0933202E15009C00E94AE0883
:1006FC00A081A13021F40E94B308EEE4EC931F5FBB
:10070C00C7CFE0E2F2E0DE01119683E10E947609A8
:10071C00FE01319683E118810C94E0061A931FEFC9
:10072C00E0914B02A0914C02EA0F1E2F0E94B908D7
:10073C0051F4E0915602E27031F4E0915602E4700B
:10074C0011F4E1E001C0E0E0E13031F50E94BE08B7
:10075C00E12FF0E0E7FDFFEF309721F4E0E0E093CC
:10076C00550217C0E130A0E0FA0721F4E1E0E09374
:10077C0055020FC0E330A0E0FA0721F4E3E0E09368
:10078C00550207C0E230A0E0FA0719F4E2E0E0936A
:10079C0055020E948C0756C0E0915602E17049F454
:1007AC000E94C40831F4E0915602E47011F4E1E0C7
:1007BC0001C0E0E0E130D9F40E94C908E0914C029C
:1007CC00E150E0934C02A0914C02A0307CF4E091FB
:1007DC004B02E450E0934B02E3E0E0934C02A09117
:1007EC004B02A0301CF4EFEFE0934B022BC0E091D6
:1007FC005602E17049F4E0915602E27029F40E942D
:10080C00CF0811F4E1E001C0E0E0E130D9F40E943E
:10081C00D408E0914C02EF5FE0934C02A0914C02A3
:10082C00A43014F4A33074F0E0914B02EC5FE0932D
:10083C004B02E0E0E0934C02A0914B02A23014F08A
:10084C00E0934B02199108950E94B90851F4E0917C
:10085C005602E27031F4E0915602E47011F4E1E0DA
:10086C0001C0E0E0E13029F40E94BE08E4E0E0932E
:10087C00550208950E94B90851F4E0915602E270B5
:10088C0031F4E0915602E47011F4E1E001C0E0E0D3
:10089C00E13041F40E94BE08E4E0E09355020E946E
:1008AC008C0751C0E0915602E17049F40E94C408D3
:1008BC0031F4E0915602E47011F4E1E001C0E0E0A3
:1008CC00E130C9F40E94C908E0914E02E150E09376
:1008DC004E02A0914E02A0306CF4E3E0E0934E0285
:1008EC00E0914D02E4500E94DA08A0301CF4E8E0DC
:1008FC00E0934D0228C0E0915602E17049F4E0917A
:10090C005602E27029F40E94CF0811F4E1E001C014
:10091C00E0E0E130C1F40E94D408E0914E02EF5FB8
:10092C00E0934E02A0914E02A4306CF0E0E0E09314
:10093C004E02E0914D02EC5F0E94DA08AB301CF0E5
:10094C00E0E0E0934D0208950E94B90851F4E09163
:10095C005602E27031F4E0915602E47011F4E1E0D9
:10096C0001C0E0E0E13011F50E94BE08E0915402B4
:10097C00E770E23029F4E0915402E87FE36013C0A1
:10098C00E0915402E770E33029F4E0915402E87FDF
:10099C00E46009C0E0915402E770E43031F4E09176
:1009AC005402E87FE260E093540250C0E09156029A
:1009BC00E17049F40E94C40831F4E0915602E470ED
:1009CC0011F4E1E001C0E0E0E13069F40E94C908F3
:1009DC00E0914D02EF5F0E94DA08AD301CF0E0E0D0
:1009EC00E0934D0233C0E0915602E17049F4E0917E
:1009FC005602E27029F40E94CF0811F4E1E001C024
:100A0C00E0E0E13069F40E94D408E0914D02E1503D
:100A1C000E94DA08A0301CF4ECE0E0934D0216C002
:100A2C00E0915602E17041F40E94C40829F40E943E
:100A3C00CF0811F4E1E001C0E0E0E13039F40E94AC
:100A4C00C9080E94D408E4E0E093550208950E947E
:100A5C00B90851F4E0915602E27031F4E09156027B
:100A6C00E47011F4E1E001C0E0E0E13021F4E09148
:100A7C005602EE7F27C0E0915602E17049F40E94C5
:100A8C00C40831F4E0915602E47011F4E1E001C0C5
:100A9C00E0E0E13021F4E0915602ED7F13C0E091EB
:100AAC005602E17049F4E0915602E27029F40E947A
:100ABC00CF0811F4E1E001C0E0E0E13041F4E09155
:100ACC005602EB7FE0935602E4E0E0935502089562
:100ADC00BA93AA931A930A93AA81BB8112960E9485
:100AEC006409309759F1AA81BB8114960E9464095C
:100AFC008F01309761F00230E0E01E0798F0F801AA
:100B0C0031978F01AA81BB811496ED93FC93AA8136
:100B1C00BB811296ED91FD913196FE93EE93319738
:100B2C00AC81A083AA81BB810E946409FF232AF0B7
:100B3C00ED91FD913196FE93EE9306C0AA81BB8197
:100B4C00EFEFFFEFED93FC93198108810C944407B0
:100B5C00BA93AA9326970E94800910E0AC85BD85B4
:100B6C00E0E0F0E0ED93FC93EA89FB893196EA8BA7
:100B7C00FB8B3197E4912E2FE03009F415C1E12F56
:100B8C00E03039F4253211F411E002C00E94DF0884
:100B9C000AC1E130A9F4253219F40E94DF0802C120
:100BAC0012E040E000E02D3211F401E0FCC02B32E9
:100BBC0011F44BE2F8C0203211F440E2F4C002C050
:100BCC00E23039F450E013E0203311F40068EBC04C
:100BDC0003C0E33009F0E7C0203310F02A3308F0EB
:100BEC0007C0AAE05A9F502DE22FE0535E0FDBC0E6
:100BFC00E22FE33649F40E94E608E889F989A481DA
:100C0C00AA930E94EC08CEC0E33741F40E94E60898
:100C1C000E94F2080E9446071E2F0AC0E03761F4BA
:100C2C000E94E6080E94F2080E9452071E2F0860DC
:100C3C0002600F7730E034C0E43611F0E93611F47D
:100C4C00046002C0E53731F4E4E5F0E0EE83FF83A5
:100C5C0015E00CC0E83511F4086003C0E83709F062
:100C6C00A1C0EEE5F0E0EE83FF8314E002FF14C0B8
:100C7C000E94E6080E94FC08AB85AA233AF4EA8598
:100C8C00FB850E944609EA87FB874DE2403011F054
:100C9C001F5F01C00B7F04C00E94E6080E94FC0885
:100CAC0000FD11C0151778F407FF08C002FF04C03F
:100CBC000B7F242F115001C020E301C020E20E94C1
:100CCC00DF085150EFCF312F01FF17C03030A1F0AA
:100CDC0003FF06C0EE81FF812591EE83FF8305C0E3
:100CEC00AE81BF812D91AE83BF830E94DF0850304F
:100CFC0009F051503150EACF4BC020E3EE81FF8117
:100D0C000E946809E887F987EE81FF813296EE83AD
:100D1C00FF83E885F985AA85BB85AE17BF0750F020
:100D2C002F5FA885B985EA85FB85EA1BFB0BEA8753
:100D3C00FB87EFCF2A3328F003FF02C0295F01C0E5
:100D4C00295D04FD1AC0213320F4A885B9851197BB
:100D5C0009F409C0531710F000FF01C013C020E2C2
:100D6C0007FF0BC020E3006102FF07C00B7F4A9313
:100D7C000E94EC08503009F051500E94DF085030AE
:100D8C0009F051503150A885B985129708F0B5CFAC
:100D9C0000FF08C0503031F05150E0E2EA930E945D
:100DAC00EC08F8CF10E0E0CEAC85BD850E9464095C
:100DBC000E94870964960895FF92F82E26970E9448
:100DCC0082090E940409309719F4EFEFFFEF31C04C
:100DDC00DE0116960E9442098D010E940409EE83E1
:100DEC00FF83E0E0E887E9870E940B0921C0FF92AE
:100DFC00F82E26970E94820920E030E00E942309F9
:100E0C00309719F4EFEFFFEF14C00E9404093097EC
:100E1C0079F0DE0116960E9442098D010E94230989
:100E2C00EE83FF830E940409E887F9870E940B096F
:100E3C00F9010E9489092A96FF900895BA93AA9302
:100E4C0099818881009641F0BD81AC81FB81EA815A
:100E5C0061916D930197E1F7FD81EC8126960895E0
:100E6C00BA93AA93B981A881109631F0FC81EB81D9
:100E7C006A8161931197E9F7EB81FC8125960895BE
:100E8C00BA93AA93A991B991EE27FF276D91662386
:100E9C0011F03196FBCF0895BA93AA93AA27BB27DA
:100EAC00E991F9910590002011F01196FBCFFD010D
:100EBC000895AA93EBB3EF70AE2FE881E07FEA2B95
:100ECC00EBBB8DE08A95F1F7DA9A8DE08A95F1F714
:100EDC00DA988DE08A95F1F777C0AA93A881E9DFBB
:100EEC00E881E295E883A881E4DF85E88A95F1F74B
:100EFC006BC0AA93E881F0E0E753FD4FE081A98134
:100F0C00AE0FEBDF5980488022960895A2E00E9434
:100F1C002A09ACE0E2DFA1E00E942A09E0E04E2EB3
:100F2C005E2E0895AA93A881AA3011F0571448F0A8
:100F3C00E0E0EA934394A42DDCDFA881AA3009F405
:100F4C0043C05394D89AA881C8DFD8983DC0BA93AF
:100F5C00AA931A93A981BA81ED91A983BA831E2F02
:100F6C00E03019F0A12FDEDFF5CF1881239608951C
:100F7C00AA93EAB3E06FEABBD29AD09AD19ADA98E4
:100F8C00D898D9987880E881E058E093CB02E88132
:100F9C00E054E093CC02A4E1B0E00E9438090E9436
:100FAC0030090E9430090E943009A0E282DF88ECEF
:100FBC0090E00197F1F7A8E290DFA4E08EDFA5E8BE
:100FCC008CDFA6E08ADFA2DF219608950E948209B9
:100FDC0000E010E030E030E00895E0E0EA93A32F69
:100FEC000E947F07E1EBF2E0FA93EA93E0E2EA93E6
:100FFC00A4E1B0E00E943607E1EBF2E0FA93EA9349
:10100C00E4E1F0E0FA93EA930895F0E0E7FDFFEFF6
:10101C000E945609A3E0EA9FF001E555FD4F6627B3
:10102C0077270E946C090895B0E0A7FDBFEFE32F6E
:10103C00F0E0EA0FFB1F08950E946C0988E00E9403
:10104C00FD062E968F010431E0E01E070895F8018D
:10105C00EF54FD4FFA93EA93E0E2EA93E4E1F0E017
:10106C00E01BF10BDF010C943607E0E0E093C502C6
:10107C00A1EBB2E00C94AD07E0E0EA93A0E00C9495
:10108C007F07E1EBF2E0FA93EA930895E0E2EA934A
:10109C00A4E1B0E00E943607F4CF0E946C0984E012
:1010AC000E94E2062896A1EBB2E00C94AD07E0E0BA
:1010BC00EA93A1E00E947F07E4CFE0914F02F0E0B9
:1010CC000E944A090895E05AFE4FDF01E091500258
:1010DC00F0E00895E054FE4FDF01E0915102F0E0A2
:1010EC000895AE0FBF1FEC91FF27662777270E944C
:1010FC006C090895E0E0EA93A4E1B0E00C943607A3
:10110C00FA93EA9380E00E94E20624960895FA93FB
:10111C00EA93E0913102F0E00E944A090895FA93B3
:10112C00EA93A8E0B0E00C942407E0914902F09116
:10113C004A020995AE2FE02FF0E0EB5CFD4FE08109
:10114C00EA170895E0913302E160E09333020895C9
:10115C00E12FF0E0E05EFD4F0895A9E2B2E0EE274A
:10116C00A10FBE1F0895E0915602E170E130089581
:10117C00E0915602EE7FE09356020895E0915602FC
:10118C00E270E2300895E0915602ED7FE093560252
:10119C000895E0915602E470E4300895E09156020F
:1011AC00EB7FE09356020895E0934D02A0914D021F
:1011BC0008952A93AD85BE85EF85F8890995089524
:1011CC00E889F9893497E88BF98B0895AD85BE854C
:1011DC00EF85F88909950895A889B98914960E9414
:1011EC006409EE83FF83AE81BF810895A889B98914
:1011FC0014960E946409EA87FB870895DE011C9609
:10120C000E9442090E9464090895DE011A960E9408
:10121C0042090E946409FA93EA931A930A93EEE640
:10122C00F5E0FA93EA93DE011A960E94AE059F014F
:10123C00AE81BF81E0E0EC930895DE011E960E9422
:10124C0042090E94640908950E947307A3E0B0E06C
:10125C000C943809A0E30E945F0788EC90E001979A
:10126C00F1F70895109639F0A89580ED97E0019765
:10127C00F1F71197C9F708950024AF0DB01D08952B
:10128C00F195E195F0400895EE0FFF1FEE0FFF1F53
:10129C00EE0FFF1F08956F2F660F660B762F0895C4
:1012AC00EA17FB07E1E009F0EE270895FA9FF02D0D
:1012BC00EB9FF00DEA9FE02DF10D0895ED91FC915F
:1012CC00119708950590F491E02D08957A936A93FF
:1012DC00FA93EA9308959A938A93BA93AA930895EA
:1012EC009927EF93FF9361916D930197E1F7FF912C
:1012FC00EF9108955A934A933A932A931A930A9327
:10130C0008955D814C813B812A8119810881089562
:00000001FF
