:0A0000000C94D0000C9400000C9446
:10000A0000000C9400000C9400000C9400000C9466
:10001A0000000C9400000C9400000C9419010C943C
:10002A0000000C9400000C9400000C9400000C9446
:10003A0000000C9400000C9400000C9400000C9436
:10004A00FD000C9400000C9400001027E8036400E3
:10005A000A0001000010000110000100E601AE01D3
:10006A00BB01B301546573742052756E20202020A1
:10007A00202000004361626C652053656C656374DF
:10008A00202020004361626C6520646566696E65A4
:10009A002020200041626F7574204D6520202020A9
:1000AA00202020002D3E2573002D3E206361626CC6
:1000BA006525303264202020202000202020636122
:1000CA00626C652530326420202020002D2D3E20D0
:1000DA002573002020202020504153532120202026
:1000EA00202000202020204661696C6564212020A0
:1000FA00202000253032642D3E2530326420202015
:10010A0050726F663D2530326400205E2020202028
:10011A0020202020202020202020200020202020F5
:10012A00205E2020202020202020202020002020A7
:10013A00202020202020202020202020205E002097
:10014A004361626C652054657374205625303264AD
:10015A0020002020202020204E5343202020202031
:10016A00200001002D4E414E00494E46000080C03D
:10017A0002004502660002004702680002004902C6
:10018A006A003F0055026E000100A5026C010200E0
:10019A00A90278010000F894EE27ECBBF1E0FBBF5E
:1001AA00EBBFE5BF8DE0A2E0BB27ED938A95E9F7A7
:1001BA0080E094E0A0E6ED930197E9F7EAE7F1E041
:1001CA0085919591009761F0A591B591059015904B
:1001DA00BF01F00105900D920197E1F7FB01F0CF05
:1001EA00EFE5EDBFE4E0EEBFC0E6D1E00C945C01C0
:1001FA00EA93EFB7EA93B39905C0E0915402E1603C
:10020A00E0935402B59905C0E0915402E260E0938C
:10021A005402B49905C0E0915402E460E093540298
:10022A00E991EFBFE99118950A921A92FA926A93A4
:10023A007A938A939A93AA93BA93EA93FA93EFB723
:10024A00EA93E4E6E2BFE0915302F0E0E430A0E092
:10025A00FA0721F48DD00E9479031BC0309711F45C
:10026A00DBD017C0E130A0E0FA0721F4AAD00E943F
:10027A00EC030FC0E230A0E0FA0721F400D10E949B
:10028A00340407C0E330A0E0FA0719F463D10E94EE
:10029A00AF04E991EFBFF991E991B991A9919991C7
:1002AA00899179916991F990199009901895E1E0ED
:1002BA00E0936001E2E0E0936101E4E0E09362012F
:1002CA00E8E0E0936301E0E1E0936401E0E2E093B7
:1002DA006501E0E4E0936601E0E8E0936701E1E0AC
:1002EA00E093C001E2E0E093C101E4E0E093C201DF
:1002FA00E8E0E093C301E0E1E093C401E0E2E093C7
:10030A00C501E0E4E093C601E0E8E093C701E0E05C
:10031A00EABBEBBBE7BBE8BBEFEFE4BBE0E0E5BB66
:10032A00E1BBE2BBEBB7E062EBBFE0E0E5BFE4BFF5
:10033A00E0E2EABFE4E0E3BFE4E6E2BFE0E0ECBF0C
:10034A00E1E0E9BFB89AA0E10E9440077894FFCFA4
:10035A00FFCFAA93E881E5BB219608950E94E008A1
:10036A00A881B9810E94AD0824960895E0B3089542
:10037A000E946E070E947807EEEAF0E0FA93EA9389
:10038A00E0914B02F0E00E9487070E9497070E94C3
:10039A007807E0EBF0E0FA93EA93E0914B02F0E0A1
:1003AA00E7FDFFEF31960E9487070E94A10741F4FB
:1003BA00E0913302E77FE0933302E0914B02089524
:1003CA0029C00E946E07E3EBF0E0FA93EA93E0910A
:1003DA004C020E94C8080E94B0070E949707E5ECE9
:1003EA00F0E0FA93EA93E0914C02F0E0E7FDFFEFC8
:1003FA0031960E94CE080E94B0070E94A10751F4CC
:10040A00E0913302E77FE0933302E0914C02E093FC
:10041A0031020895EFEF0895A0912802A93061F101
:10042A00B4D018D10E946E070E94BA07E6EDF0E038
:10043A00FA93EA93E9E2F2E0662777270E94B00787
:10044A00A0913202A83039F40E9497070E94BA0795
:10045A00EDEDF0E006C00E9497070E94BA07EDEEA4
:10046A00F0E0FA93EA930E94C507A5E9B2E00E9478
:10047A002F07E0E0E0933202E0E008950895E0E01B
:10048A00EA93A0E00E9401070E94CA070E94D007CF
:10049A00EA0FFB1FA0915002A0830E94CA070E9484
:1004AA00D707EA0FFB1FA0915102A0830E94DE0723
:1004BA00EDEFF0E0FA93EA930E94CA070E94D00790
:1004CA000E94E3070E94CA070E94D7070E94E30717
:1004DA00E0914D02FF27662777270E94DB088CE010
:1004EA000E9464066096A5E9B2E00E942F070E9466
:1004FA00DE070E94EC07E0E0EA93A1E00E94010710
:10050A00E0915202F0E0E770F070E2FF02C0E86F9B
:10051A00FF6FE230A0E0FA0739F40E94DE07E4E157
:10052A00F1E00E94F20715C0E330A0E0FA0739F4BF
:10053A000E949707E6E2F1E00E94F2070AC0E4305F
:10054A00A0E0FA0731F40E94DE07E8E3F1E00E9436
:10055A00F20712C00E946E07E9E4F1E0FA93EA9307
:10056A00E1E0F0E060E070E00E94B0070E949707C7
:10057A00ECE5F1E00E94F207A5E9B2E00E942F073C
:10058A000E94DE070E94EC0708951A930A9310E06E
:10059A0000E0E5E3F2E00E94F507E05AFE4F0E9410
:1005AA00FD07EDE3F2E00E94F507E054FE4F0E94DA
:1005BA00FD0710E0183008F04AC0E12FF0E0E35CD4
:1005CA00FD4FA081E0914702F0914802099500E0B1
:1005DA00083028F50E940308A1F4011751F0A12F51
:1005EA00B0E0A05EBD4FE12FEE5FEC930E941008D1
:1005FA0008C0011731F40E9410080E941608A0E0F2
:10060A00A0830E94030848F40E941008A12FB0E0BA
:10061A00A05EBD4FE12FED5FEC930F5FD9CFE09164
:10062A003302E170E13021F4E0913302EE7F0BC036
:10063A00E0913302E17049F40E941608A1E0A08318
:10064A00E0913302E260E09333021F5FB3CF099176
:10065A001991089563971A9310E010E01830B8F5CD
:10066A000E941608A081E12FF0E03396B0E0EA1765
:10067A00FB0721F40E941B08E3E426C00E94160827
:10068A00A081E12FF0E03296B0E0EA17FB0721F4EF
:10069A000E941B08E7E518C00E941608E081E030B6
:1006AA0059F40E941B08E7E4EC93E0913202EF5FF1
:1006BA00E0933202E15009C00E941608A081A130DD
:1006CA0021F40E941B08EEE4EC931F5FC7CFE0E21F
:1006DA00F2E0DE01119683E10E94E508FE013196FF
:1006EA0083E118810C9462060E94210851F4E0917A
:1006FA005402E27031F4E0915402E47011F4E1E042
:10070A0001C0E0E0E13029F50E942608E0914C02A0
:10071A00F0E0E7FDFFEF309721F4E0E0E0935302C9
:10072A0017C0E130A0E0FA0721F4E1E0E0935302B8
:10073A000FC0E230A0E0FA0721F4E2E0E0935302AE
:10074A0007C0E330A0E0FA0719F4E3E0E0935302AC
:10075A003DC0E0915402E17049F40E942C0831F442
:10076A00E0915402E47011F4E1E001C0E0E0E1300C
:10077A0079F40E943108E0914B02EF5FE0934B025B
:10078A00A0914B02A3301CF0E0E0E0934B021EC0A4
:10079A00E0915402E17049F4E0915402E27029F4C4
:1007AA000E94370811F4E1E001C0E0E0E13071F4A1
:1007BA000E943C08E0914B02E150E0934B02A09169
:1007CA004B02A0301CF4E3E0E0934B0208950E9430
:1007DA00210851F4E0915402E27031F4E09154029C
:1007EA00E47011F4E1E001C0E0E0E13031F40E948C
:1007FA002608E4E0E093530231C0E0915402E1702C
:10080A0049F40E942C0831F4E0915402E47011F486
:10081A00E1E001C0E0E0E13049F40E9431080E94C1
:10082A0042081CF0E0E0E0934C0218C0E091540248
:10083A00E17049F4E0915402E27029F40E94370809
:10084A0011F4E1E001C0E0E0E13041F40E943C082B
:10085A000E944B081CF4ECE0E0934C0208950E94BD
:10086A00210851F4E0915402E27031F4E09154020B
:10087A00E47011F4E1E001C0E0E0E13011F50E941A
:10088A002608E0915202E770E23029F4E091520220
:10089A00E87FE36013C0E0915202E770E33029F485
:1008AA00E0915202E87FE46009C0E0915202E770E9
:1008BA00E43031F4E0915202E87FE260E0935202C0
:1008CA0048C0E0915402E17049F40E942C0831F4C6
:1008DA00E0915402E47011F4E1E001C0E0E0E1309B
:1008EA0049F40E9431080E9442081CF0E0E0E093BB
:1008FA004C022FC0E0915402E17049F4E091540295
:10090A00E27029F40E94370811F4E1E001C0E0E046
:10091A00E13049F40E943C080E944B081CF4ECE0C8
:10092A00E0934C0216C0E0915402E17041F40E9437
:10093A002C0829F40E94370811F4E1E001C0E0E034
:10094A00E13039F40E9431080E943C08E4E0E09367
:10095A00530208950E94210851F4E0915402E27072
:10096A0031F4E0915402E47011F4E1E001C0E0E0F6
:10097A00E13021F4E0915402EE7F27C0E091540265
:10098A00E17049F40E942C0831F4E0915402E470B9
:10099A0011F4E1E001C0E0E0E13021F4E091540219
:1009AA00ED7F13C0E0915402E17049F4E0915402E2
:1009BA00E27029F40E94370811F4E1E001C0E0E096
:1009CA00E13041F4E0915402EB7FE0935402E4E019
:1009DA00E09353020895BA93AA931A930A93AA81A9
:1009EA00BB8112960E94D308309759F1AA81BB8124
:1009FA0014960E94D3088F01309761F00230E0E02C
:100A0A001E0798F0F80131978F01AA81BB811496CD
:100A1A00ED93FC93AA81BB811296ED91FD913196DB
:100A2A00FE93EE933197AC81A083AA81BB810E9489
:100A3A00D308FF232AF0ED91FD913196FE93EE93B0
:100A4A0006C0AA81BB81EFEFFFEFED93FC931981FA
:100A5A0008810C94C606BA93AA9326970E94EF08B7
:100A6A0010E0AC85BD85E0E0F0E0ED93FC93EA8907
:100A7A00FB893196EA8BFB8B3197E4912E2FE0307C
:100A8A0009F415C1E12FE03039F4253211F411E0EF
:100A9A0002C00E9454080AC1E130A9F4253219F4AF
:100AAA000E94540802C112E040E000E02D3211F425
:100ABA0001E0FCC02B3211F44BE2F8C0203211F4F1
:100ACA0040E2F4C002C0E23039F450E013E02033CF
:100ADA0011F40068EBC003C0E33009F0E7C020332B
:100AEA0010F02A3308F007C0AAE05A9F502DE22FCF
:100AFA00E0535E0FDBC0E22FE33649F40E945B0845
:100B0A00E889F989A481AA930E946108CEC0E337D3
:100B1A0041F40E945B080E9467080E94C8061E2FC3
:100B2A000AC0E03761F40E945B080E9467080E94CD
:100B3A00D4061E2F086002600F7730E034C0E43616
:100B4A0011F0E93611F4046002C0E53731F4E4E546
:100B5A00F0E0EE83FF8315E00CC0E83511F408607D
:100B6A0003C0E83709F0A1C0EEE5F0E0EE83FF83A9
:100B7A0014E002FF14C00E945B080E947108AB8552
:100B8A00AA233AF4EA85FB850E94BB08EA87FB8719
:100B9A004DE2403011F01F5F01C00B7F04C00E947C
:100BAA005B080E94710800FD11C0151778F407FF51
:100BBA0008C002FF04C00B7F242F115001C020E39C
:100BCA0001C020E20E9454085150EFCF312F01FF9B
:100BDA0017C03030A1F003FF06C0EE81FF812591D6
:100BEA00EE83FF8305C0AE81BF812D91AE83BF83A3
:100BFA000E945408503009F051503150EACF4BC08E
:100C0A0020E3EE81FF810E94D708E887F987EE8109
:100C1A00FF813296EE83FF83E885F985AA85BB8535
:100C2A00AE17BF0750F02F5FA885B985EA85FB8507
:100C3A00EA1BFB0BEA87FB87EFCF2A3328F003FF77
:100C4A0002C0295F01C0295D04FD1AC0213320F4C6
:100C5A00A885B985119709F409C0531710F000FF48
:100C6A0001C013C020E207FF0BC020E3006102FFAE
:100C7A0007C00B7F4A930E946108503009F0515017
:100C8A000E945408503009F051503150A885B98556
:100C9A00129708F0B5CF00FF08C0503031F051501C
:100CAA00E0E2EA930E946108F8CF10E0E0CEAC855A
:100CBA00BD850E94D3080E94F60864960895FF92A3
:100CCA00F82E26970E94F1080E947908309719F4A5
:100CDA00EFEFFFEF31C0DE0116960E94B7088D01D3
:100CEA000E947908EE83FF83E0E0E887E9870E94A3
:100CFA00800821C0FF92F82E26970E94F10820E072
:100D0A0030E00E949808309719F4EFEFFFEF14C013
:100D1A000E947908309779F0DE0116960E94B7088A
:100D2A008D010E949808EE83FF830E947908E88764
:100D3A00F9870E948008F9010E94F8082A96FF9014
:100D4A000895BA93AA9399818881009641F0BD814A
:100D5A00AC81FB81EA8161916D930197E1F7FD8195
:100D6A00EC8126960895BA93AA93B981A881109620
:100D7A0031F0FC81EB816A8161931197E9F7EB818C
:100D8A00FC8125960895BA93AA93A991B991EE2761
:100D9A00FF276D91662311F03196FBCF0895BA9320
:100DAA00AA93AA27BB27E991F9910590002011F08F
:100DBA001196FBCFFD010895AA93EBB3EF70AE2F06
:100DCA00E881E07FEA2BEBBB8DE08A95F1F7DA9AAE
:100DDA008DE08A95F1F7DA988DE08A95F1F777C078
:100DEA00AA93A881E9DFE881E295E883A881E4DF94
:100DFA0085E88A95F1F76BC0AA93E881F0E0E75598
:100E0A00FD4FE081A981AE0FEBDF59804880229621
:100E1A000895A2E00E949F08ACE0E2DFA1E00E94F0
:100E2A009F08E0E04E2E5E2E0895AA93A881AA306C
:100E3A0011F0571448F0E0E0EA934394A42DDCDF64
:100E4A00A881AA3009F443C05394D89AA881C8DF6C
:100E5A00D8983DC0BA93AA931A93A981BA81ED9101
:100E6A00A983BA831E2FE03019F0A12FDEDFF5CF58
:100E7A00188123960895AA93EAB3E06FEABBD29A3F
:100E8A00D09AD19ADA98D898D9987880E881E05897
:100E9A00E093AB02E881E054E093AC02A4E1B0E055
:100EAA000E94AD080E94A5080E94A5080E94A508F4
:100EBA00A0E282DF88EC90E00197F1F7A8E290DFE8
:100ECA00A4E08EDFA5E88CDFA6E08ADFA2DF219608
:100EDA000895E0E0EA93A0E00E940107E5E9F2E064
:100EEA00FA93EA930895E0E0EA93A0E1B0E00E9461
:100EFA00B806E5E9F2E0FA93EA93E0E1F0E0FA9362
:100F0A00EA9308950E94BF08EB5AFD4F6627772798
:100F1A000E94DB0884E00E947F062A96A5E9B2E0D7
:100F2A000C942F07E0E0EA93A1E00E940107E5E9AB
:100F3A00F2E0FA93EA930895E5E9F2E0FA93EA9384
:100F4A00E0E0EA93A0E1B0E00E94B806E091330243
:100F5A00E870E83008950E94DB0884E00E94640685
:100F6A002896A5E9B2E00C942F07E0E2EA93A0E103
:100F7A00B0E00E94B806E5E9F2E0FA93EA93089530
:100F8A0080E00E94640624960895E0914D02F0E004
:100F9A000E94C1080895E05AFE4FDF01E0914E0217
:100FAA00F0E00895E054FE4FDF01E0914F02F0E0D7
:100FBA000895E5E9F2E0FA93EA930895AE0FBF1FA8
:100FCA00EC91FF27662777270E94DB080895E0E067
:100FDA00EA93A0E1B0E00C94B806FA93EA93D0CF72
:100FEA00FA93EA93E0913102F0E00E94C108089571
:100FFA00FA93EA93A8E0B0E00C94A606E0914902BD
:10100A00F0914A020995AE2FE02FF0E0EB5CFD4F1C
:10101A00E081EA170895E0913302E160E093330238
:10102A000895E12FF0E0E05EFD4F0895A9E2B2E0F5
:10103A00EE27A10FBE1F0895E0915402E170E1303E
:10104A000895E0915402EE7FE09354020895E091EE
:10105A005402E270E2300895E0915402ED7FE09389
:10106A0054020895E0915402E470E4300895E09146
:10107A005402EB7FE09354020895E0914C02EF5F33
:10108A00E0934C02A0914C02AD300895E0914C02DD
:10109A00E150E0934C02A0914C02A03008952A93AB
:1010AA00AD85BE85EF85F88909950895E889F9899E
:1010BA003497E88BF98B0895AD85BE85EF85F8895D
:1010CA0009950895A889B98914960E94D308EE83D0
:1010DA00FF83AE81BF810895A889B98914960E94B9
:1010EA00D308EA87FB870895DE011C960E94B70899
:1010FA000E94D3080895DE011A960E94B7080E943A
:10110A00D308FA93EA931A930A93E0EFF4E0FA9376
:10111A00EA93DE011A960E9430059F01AE81BF81D3
:10112A00E0E0EC930895DE011E960E94B7080E9443
:10113A00D30808950E94F506A3E0B0E00C94AD0828
:10114A00A0E30E94E10688EC90E00197F1F7089588
:10115A00109639F0A89580ED97E00197F1F711976D
:10116A00C9F708950024AF0DB01D0895F195E195D2
:10117A00F0400895EE0FFF1FEE0FFF1FEE0FFF1F47
:10118A00EE0FFF1F0895FE2FFF0FFF0B6F2F7F2F0C
:10119A0008956F2F660F660B762F0895ED91FC91D7
:1011AA00119708950590F491E02D08957A936A9322
:1011BA00FA93EA9308959A938A93BA93AA9308950D
:1011CA009927EF93FF9361916D930197E1F7FF914F
:1011DA00EF9108955A934A933A932A931A930A934A
:1011EA0008955D814C813B812A8119810881089586
:00000001FF
